{
  "address": "0x4C705959f2c76385dEff7E4d5d54D8897802f91A",
  "abi": [
    {
      "inputs": [
        {
          "internalType": "address",
          "name": "_taoUSD",
          "type": "address"
        },
        {
          "internalType": "address",
          "name": "_sTAO",
          "type": "address"
        },
        {
          "internalType": "address",
          "name": "_uniswapRouter",
          "type": "address"
        }
      ],
      "stateMutability": "nonpayable",
      "type": "constructor"
    },
    {
      "inputs": [],
      "name": "sTAO",
      "outputs": [
        {
          "internalType": "contract IERC20",
          "name": "",
          "type": "address"
        }
      ],
      "stateMutability": "view",
      "type": "function"
    },
    {
      "inputs": [],
      "name": "taoUSD",
      "outputs": [
        {
          "internalType": "contract IERC20",
          "name": "",
          "type": "address"
        }
      ],
      "stateMutability": "view",
      "type": "function"
    },
    {
      "inputs": [],
      "name": "uniswapRouter",
      "outputs": [
        {
          "internalType": "contract IUniswapV2Router02",
          "name": "",
          "type": "address"
        }
      ],
      "stateMutability": "view",
      "type": "function"
    },
    {
      "inputs": [
        {
          "internalType": "uint256",
          "name": "taoUSDAmount",
          "type": "uint256"
        },
        {
          "internalType": "uint256",
          "name": "minTaoUSDAmount",
          "type": "uint256"
        },
        {
          "internalType": "uint256",
          "name": "minSTAOAmount",
          "type": "uint256"
        }
      ],
      "name": "zapAddLiquidity",
      "outputs": [
        {
          "internalType": "uint256",
          "name": "liquidity",
          "type": "uint256"
        }
      ],
      "stateMutability": "payable",
      "type": "function"
    }
  ],
  "transactionHash": "0xe6935382d0e68904ec9026b0ffb15f5e33decca3dde47ab5d4635fe560cd7814",
  "args": [
    "0x9bB4FC27453e04318bf968f2E994B47eDa8F724D",
    "0xf4E83cBF44415a9e677310950e250E2167842c7D",
    "0x86fe181fBEa665e52226b2981Df83a89b6edE822"
  ],
  "numDeployments": 1,
  "solcInputHash": "904d50dc0394f7ae56ec4965dd9256a2",
  "bytecode": "0x60e06040523480156200001157600080fd5b5060405162000cec38038062000cec833981016040819052620000349162000164565b60016000556001600160a01b03808416608081905283821660a05290821660c05260405163095ea7b360e01b815263095ea7b3906200007c90849060001990600401620001ae565b6020604051808303816000875af11580156200009c573d6000803e3d6000fd5b505050506040513d601f19601f82011682018060405250810190620000c29190620001c7565b5060a0516001600160a01b031663095ea7b3826000196040518363ffffffff1660e01b8152600401620000f7929190620001ae565b6020604051808303816000875af115801562000117573d6000803e3d6000fd5b505050506040513d601f19601f820116820180604052508101906200013d9190620001c7565b50505050620001f2565b80516001600160a01b03811681146200015f57600080fd5b919050565b6000806000606084860312156200017a57600080fd5b620001858462000147565b9250620001956020850162000147565b9150620001a56040850162000147565b90509250925092565b6001600160a01b03929092168252602082015260400190565b600060208284031215620001da57600080fd5b81518015158114620001eb57600080fd5b9392505050565b60805160a05160c051610a806200026c6000396000818160bd015261026401526000818160f101528181610156015281816101e2015281816102b4015281816102d6015281816104c8015261055d015260008181607c0152818161012a015281816102930152818161041b015261049b0152610a806000f3fe60806040526004361061003f5760003560e01c80630ff9933f1461004457806368dd33bd1461006a578063735de9f7146100ab578063b1232ac0146100df575b600080fd5b6100576100523660046108ee565b610113565b6040519081526020015b60405180910390f35b34801561007657600080fd5b5061009e7f000000000000000000000000000000000000000000000000000000000000000081565b604051610061919061091a565b3480156100b757600080fd5b5061009e7f000000000000000000000000000000000000000000000000000000000000000081565b3480156100eb57600080fd5b5061009e7f000000000000000000000000000000000000000000000000000000000000000081565b600061011d610596565b6101526001600160a01b037f0000000000000000000000000000000000000000000000000000000000000000163330876105f4565b60007f00000000000000000000000000000000000000000000000000000000000000006001600160a01b0316639db9e18b6040518163ffffffff1660e01b8152600401602060405180830381865afa1580156101b2573d6000803e3d6000fd5b505050506040513d601f19601f820116820180604052508101906101d6919061092e565b90506001600160a01b037f0000000000000000000000000000000000000000000000000000000000000000166347e7ef246102118334610947565b30866040518463ffffffff1660e01b815260040161023092919061096e565b6000604051808303818588803b15801561024957600080fd5b505af115801561025d573d6000803e3d6000fd5b50505050507f00000000000000000000000000000000000000000000000000000000000000006001600160a01b031663e8e337007f00000000000000000000000000000000000000000000000000000000000000007f0000000000000000000000000000000000000000000000000000000000000000887f00000000000000000000000000000000000000000000000000000000000000006001600160a01b03166370a08231306040518263ffffffff1660e01b8152600401610320919061091a565b602060405180830381865afa15801561033d573d6000803e3d6000fd5b505050506040513d601f19601f82011682018060405250810190610361919061092e565b6040516001600160e01b031960e087901b1681526001600160a01b039485166004820152939092166024840152604483015260648201526084810187905260a481018690523360c48201524260e4820152610104016060604051808303816000875af11580156103d5573d6000803e3d6000fd5b505050506040513d601f19601f820116820180604052508101906103f99190610987565b6040516370a0823160e01b81529094506104c292503391506001600160a01b037f000000000000000000000000000000000000000000000000000000000000000016906370a082319061045090309060040161091a565b602060405180830381865afa15801561046d573d6000803e3d6000fd5b505050506040513d601f19601f82011682018060405250810190610491919061092e565b6001600160a01b037f0000000000000000000000000000000000000000000000000000000000000000169190610665565b610584337f00000000000000000000000000000000000000000000000000000000000000006001600160a01b03166370a08231306040518263ffffffff1660e01b8152600401610512919061091a565b602060405180830381865afa15801561052f573d6000803e3d6000fd5b505050506040513d601f19601f82011682018060405250810190610553919061092e565b6001600160a01b037f0000000000000000000000000000000000000000000000000000000000000000169190610665565b5061058f6001600055565b9392505050565b6002600054036105ed5760405162461bcd60e51b815260206004820152601f60248201527f5265656e7472616e637947756172643a207265656e7472616e742063616c6c0060448201526064015b60405180910390fd5b6002600055565b6040516001600160a01b038085166024830152831660448201526064810182905261065f9085906323b872dd60e01b906084015b60408051601f198184030181529190526020810180516001600160e01b03166001600160e01b031990931692909217909152610689565b50505050565b6106848363a9059cbb60e01b848460405160240161062892919061096e565b505050565b60006106de826040518060400160405280602081526020017f5361666545524332303a206c6f772d6c6576656c2063616c6c206661696c6564815250856001600160a01b031661075e9092919063ffffffff16565b90508051600014806106ff5750808060200190518101906106ff91906109b5565b6106845760405162461bcd60e51b815260206004820152602a60248201527f5361666545524332303a204552433230206f7065726174696f6e20646964206e6044820152691bdd081cdd58d8d9595960b21b60648201526084016105e4565b606061076d8484600085610775565b949350505050565b6060824710156107d65760405162461bcd60e51b815260206004820152602660248201527f416464726573733a20696e73756666696369656e742062616c616e636520666f6044820152651c8818d85b1b60d21b60648201526084016105e4565b600080866001600160a01b031685876040516107f291906109fb565b60006040518083038185875af1925050503d806000811461082f576040519150601f19603f3d011682016040523d82523d6000602084013e610834565b606091505b509150915061084587838387610850565b979650505050505050565b606083156108bf5782516000036108b8576001600160a01b0385163b6108b85760405162461bcd60e51b815260206004820152601d60248201527f416464726573733a2063616c6c20746f206e6f6e2d636f6e747261637400000060448201526064016105e4565b508161076d565b61076d83838151156108d45781518083602001fd5b8060405162461bcd60e51b81526004016105e49190610a17565b60008060006060848603121561090357600080fd5b505081359360208301359350604090920135919050565b6001600160a01b0391909116815260200190565b60006020828403121561094057600080fd5b5051919050565b8181038181111561096857634e487b7160e01b600052601160045260246000fd5b92915050565b6001600160a01b03929092168252602082015260400190565b60008060006060848603121561099c57600080fd5b8351925060208401519150604084015190509250925092565b6000602082840312156109c757600080fd5b8151801515811461058f57600080fd5b60005b838110156109f25781810151838201526020016109da565b50506000910152565b60008251610a0d8184602087016109d7565b9190910192915050565b6020815260008251806020840152610a368160408501602087016109d7565b601f01601f1916919091016040019291505056fea2646970667358221220c07bec59bf580efbdb1b5cb44a153012b711ab80ba2cdbe45df742eb13363bc264736f6c63430008150033",
  "devdoc": {
    "kind": "dev",
    "methods": {},
    "version": 1
  },
  "userdoc": {
    "kind": "user",
    "methods": {},
    "version": 1
  },
  "storageLayout": {
    "storage": [
      {
        "astId": 10,
        "contract": "contracts/TaoUSDSTAOZap.sol:TaoUSDSTAOZap",
        "label": "_status",
        "offset": 0,
        "slot": "0",
        "type": "t_uint256"
      }
    ],
    "types": {
      "t_uint256": {
        "encoding": "inplace",
        "label": "uint256",
        "numberOfBytes": "32"
      }
    }
  }
}